:020000040800F2
:1000000070050020C9200008D11F0008D31F000878
:10001000D51F0008D71F0008D91F000800000000E6
:10002000000000000000000000000000DB1F0008CE
:10003000DD1F000800000000DF1F0008E11F0008AE
:10004000E1200008E5200008E9200008ED20000874
:10005000F1200008F5200008F9200008FD20000824
:100060000121000805210008092100080D210008D0
:100070001121000815210008192100081D21000880
:100080002121000825210008292100082D21000830
:100090003121000835210008392100083D210008E0
:1000A00041210008E51F00084521000849210008FA
:1000B0004D210008512100080000000055210008D2
:1000C0005921000800000000000000005D21000828
:1000D00000000000EB1F0008612100080000000084
:1000E00065210008692100086D21000838B5040069
:1000F00001D1012032BD00F09AF818B900F0FFF9E3
:1001000000F04BFB24E090F83D10012901D00120C4
:100110007047022180F83D100168CA6842F0010270
:10012000CA600168DFF8102191421EBFB1F1804F13
:10013000DFF80821914205D1896801F007010629FD
:1001400004D001680A6842F001020A60002070478A
:1001500002206870211D206800F0D5F90120A872E6
:10016000A870E87028716871A871E87128726872C7
:100170006870002032BD886800F0070006287047CC
:100180000846016841F001010160704738B504007C
:1001900001D1012032BD00F04AF818B900F0AFF9E2
:1001A00000F096FBD4E710B5044604F13E0009B90F
:1001B000027807E0042908BF427803D008290CBF61
:1001C0008278C278012A01D0012010BD11B9022223
:1001D00002700AE0042902D10222427005E00829D7
:1001E00007BF022282700223C3702068012200F040
:1001F0008CFA00F00EF81EBFB1F1804FDFF83C0022
:10020000814202D1FFF7B7FF01D0FFF7B9FF00200D
:1002100010BD2168DFF82000814205D1DFF82010F1
:100220000A6842F400420A6021688142704704F182
:100230003C05687870470000002C01400004004035
:10024000442C014070B504462068C5680669B107B2
:1002500014D5AA0712D56FF002010161012222779D
:10026000806910F0030F204602D000F032FB03E05B
:1002700000F030FB00F07BF800202077700715D5E8
:10028000690713D520686FF004020261022121770B
:10029000806910F4407F204602D000F01AFB03E092
:1002A00000F018FB00F063F800202077300715D528
:1002B000290713D520686FF0080202610421217715
:1002C000C06910F0030F204602D000F002FB03E0EB
:1002D00000F000FB00F04BF800202077F00615D569
:1002E000E90613D520686FF010020261082121771A
:1002F000C06910F4407F204602D000F0EAFA03E023
:1003000000F0E8FA00F033F80020207706F0010151
:1003100005F00100014206D020686FF00101016183
:10032000204600F005FB300608D5290606D52268D0
:100330006FF080001061204600F00CFB700608D5BD
:10034000690606D522686FF040001061204600F073
:1003500002FBB0060AD5A90608D522686FF0200076
:1003600010612046BDE8704000F0F6BA70BD20462E
:1003700000F0F3BA002084F83C002846704770B5BE
:1003800000F058F801D1022070BD012084F83C0033
:1003900032B1042A15D0082A25D00C2A34D045E0E1
:1003A000206800F0E1F82168886940F00800886161
:1003B000886920F0040088618A69306902438A6193
:1003C00035E0206800F0F5F82068816941F40061AB
:1003D0008161816921F4806181618169326941EAC9
:1003E0000221816123E0206800F00CF92168C869CE
:1003F00040F00800C861C86920F00400C861CA69FB
:1004000030690243CA6112E0206800F023F92068D5
:10041000C16941F40061C161C16921F48061C161B8
:10042000C169326941EA0221C16100E00125FFF79B
:10043000A1FF70BD0446002594F83C0001280E463B
:10044000704770B5064606F13C050024287801285F
:1004500001D1022070BD0120287002226A70DFF8ED
:10046000340232689368034093600868020018BF42
:10047000102830D0202818BF30282CD0402826D073
:10048000502819D060281BD0702806D0B0F5805FA6
:1004900027D0B0F5005F07D022E000F02BF83068DD
:1004A000816841F0770105E000F024F83068816848
:1004B00041F48041816014E000F018F850210BE015
:1004C000CA684968306800F0FCF8602104E000F078
:1004D0000DF8402100E00146306800F004F900E02A
:1004E00001240120687000F00AF870BDCA684968EC
:1004F0003068D7E0CB684A6889683068FBE0002143
:1005000029702046704730B5634D644C0368A8429B
:100510001CBFB0F1804FA04208D14A6823F070039D
:100520001343A84218BFB0F1804F01D0A04203D1BD
:10053000CA6823F4407313434A6923F080031343CA
:100540000360A8428B68C3620A68826202D10969AB
:10055000534A1160012343610169CA0703D5016948
:1005600049084900016130BD70B5066A026A520847
:100570005200026226F00206446885690B688A68A8
:1005800025F073051D431643434B98420BD1CA68AF
:100590004B6926F0080624F4407416438A691C430C
:1005A00026F004061443446085614968416306628D
:1005B00070BD70B5056A026A374E22F01002026201
:1005C00025F02005436884690A6824F4E64444EA77
:1005D00002248A68B04245EA02150DD1CA684E6904
:1005E00025F0800545EA02158A6923F44063164325
:1005F00025F0400543EA86034360846149688163CE
:10060000056270BD70B5056A026A22F480720262EA
:1006100025F400754368C4690A688E6824F0730481
:1006200014431D4A904245EA06250DD1CA684E6919
:1006300025F4006545EA02258A6923F440531643F0
:1006400025F4806543EA06134360C4614968C163C9
:10065000056270BD70B5046A026A0F4E22F48052C2
:10066000026224F400544268C3690D6823F4E6432F
:1006700043EA05238D68B04244EA053404D14D694C
:1006800022F4804242EA85124260C36149680164F3
:10069000046270BD8800FFFF002C01400004004090
:1006A000302C014010B5036A046A640864000462D7
:1006B00023F00A03846924F0F00444EA02148461FC
:1006C0002EE010B5036A046A24F01004046223F0DB
:1006D000A003846924F4704444EA0234846143EA48
:1006E0000113036210BD826822F07002114341F0D1
:1006F00007018160704710B5846824F47F4421436A
:10070000114341EA0321816010BD10B501F01F01C2
:10071000036A01248C40A343036202FA01F1036AD5
:100720001943016210BD30B4002513E050F8042BCA
:10073000D30744BFA9F101039A18091F042942F8FD
:10074000045BFAD213468C0744BF15809B1CC90773
:1007500048BF1D7050F8041B0029E7D130BC70471A
:10076000554881B0016841F001010160026802F062
:10077000010200920099426842F080524260406853
:1007800000F08050009000984C48016821F0E06132
:1007900041F00071016001B0704780B50068484ABF
:1007A0004549904212D1086840F400600860002278
:1007B000096801F40061009100210098192000F0FF
:1007C000E7F8BDE80240192000F0FFB8B0F1804F13
:1007D00008D1486840F001004860486800F0010016
:1007E0000090009801BD18B585B004461022002184
:1007F00001A800F015F92168B1F1804F1BD12E48F6
:10080000016841F0080101600821006800F008005B
:100810000090022200982B4801910292049201A9B3
:1008200000F008F92548016821F4407141F0E061C9
:1008300041F48071016006B010BD18B585B0044662
:1008400010220021684600F0EBF821681E48814222
:1008500030D119481D4C016841F4804101600268A3
:1008600002F4804204920499026842F00402026099
:100870004FF40071006800F0040004900222049814
:1008800000910192032103912046694600F0D2F8BD
:100890004FF480600021009001910291204669464A
:1008A00000F0C8F800220021252000F071F8252072
:1008B00000F08BF806B010BD181002400400014093
:1008C000002C0140000C01400038014000080140AC
:1008D000704770477047000080B5012218491948D9
:1008E00000F0DCF9BDE802401748FFF70CBC38B552
:1008F0000024164800EB04152A7A012A05D1E8687D
:1009000080472968696000202872641C042CF0DB91
:1009100031BD00210D4800EB0112506820B1401E8E
:10092000506004BF01201072491C0429F2DB70479B
:1009300000680749884208BFFFF7EBBF7047000017
:100940006801002078000020C00000202400002062
:10095000002C014070477047704770470901020042
:1009600002D4294881547047284B02F00F021A44E0
:1009700002F8041C7047264B19684FF6FF0200026C
:10098000114000F4E06008432249084318607047B2
:1009900070B51F4B1C68C4F302230124C3F1070583
:1009A000052D2EBF0F2504FA05F56D1E1E1D072E01
:1009B00034BF0023DB1E2940994004FA03F3BDE84D
:1009C00070405B1E1A401143C8E7010007D40122A2
:1009D00000F01F01104B8A40400943F82020704767
:1009E00010B5401EB0F1807F01D3012010BD0B4C2B
:1009F00060600F214FF0FF30FFF7B0FF0021A160D2
:100A000007202060002010BD00E400E018ED00E0A9
:100A10000CED00E00000FA0500E100E010E000E06D
:100A200010B5044610460A460146204600F0B6FBC3
:100A3000204610BD2DE9F8474FF0000E0024604A13
:100A4000604BDFF884814FF00F0982460CE0176895
:100A50003840106006E055604D68ED03F7D510682A
:100A6000074317600EF1010E0F6837FA0EF000F021
:100A70009A80012000FA0EF63740B742F2D148685A
:100A800038B301281AD002281DD003282ED01128EF
:100A900016D012281AD04D4DA8421CBF4C4DA8426A
:100AA00017D04C4DA8421CBF4B4DA84211D04B4D06
:100AB000A8421CBF4A4DA8420BD018E0CC6816E0F3
:100AC000CC68241D13E0CC68083410E0CC680C34EA
:100AD0000DE0886808B9042409E0012819BF08243A
:100AE000CAF814600824CAF8106000E00024B7F5C2
:100AF000807F03D250464FEA8E0C05E0AEF1080528
:100B00000AF104004FEA850C056809FA0CF6B543B2
:100B100004FA0CF6354305604868C000A2D5D8F841
:100B2000000040F00100C8F80000D8F8005005F0BF
:100B3000010500954FEA8E0500984FEA9E0053F894
:100B4000206005F00C0C09FA0CF526EA0505254E87
:100B5000B24508BF002609D0234EB24508BF012682
:100B600004D0224EB2450CBF0226032606FA0CF62C
:100B7000354343F82050F8434D68ED0295684CBF6B
:100B80003D43054095604D68AD02D5684CBF3D437F
:100B90000540D5604D685668AD034CBF47EA060571
:100BA00000EA060557E7BDE8F1878068084018BFEE
:100BB0000120C0B2704702B909040161704700000A
:100BC000000401400800014018100240000011100C
:100BD000000012100000211000002210000031104F
:100BE0000000321000080140000C014000100140DC
:100BF00038B5040001D1012032BD00F019F808B960
:100C000000F01AF800F01DF800F025F8FFE7416148
:100C100000F001F832BD2068C16841F40051C160A4
:100C20000020686020216970A9700021616370470D
:100C300004F1400568787047002129702046FFF7CD
:100C4000FCBD242068702068C16821F40051C16097
:100C5000204600F063BA2068016921F490410161E7
:100C60002068416921F02A01704790F84130202B1B
:100C700012D109B1130001D10120704701628284B1
:100C8000C28400214164212280F841200068C168AB
:100C900041F0800100F0A3B90220704710B500F1C7
:100CA00030039C7C202C0AD109B1140001D1012011
:100CB00010BD00241C60BDE8104000F078B902208F
:100CC00010BD216801F1140252E8001F206800F1F4
:100CD000140321F0400143E8001000287047F8B5E4
:100CE000044626683568F768736915F00F0205F049
:100CF000200107F0200007D1002918BF00285DD08F
:100D00002046BDE8F240A1E1DA0702D417F4907F53
:100D100054D0EA0705D5FE0503D5626C42F0010206
:100D200062646A0705D5DE0703D5626C42F00202F1
:100D30006264AA0705D5DE0703D5626C42F004029F
:100D400062642A0706D508B9DA0703D5636C43F055
:100D500008036364626C002A2FD000291EBF00289C
:100D6000204600F073F920684069616C0A0701D4DD
:100D700040061DD5204600F043F920684169480629
:100D800011D5FFF79EFFFCD1E06B60B10FF2B121EE
:100D90004163E06B00F05BFA00280ED0E06B416B22
:100DA000BDE8F44008472046BDE8F24000F0AABA8A
:100DB000204600F0A7FA00206064F1BD206B0128F6
:100DC00004F1410340F09180E80600D5F90640F1B6
:100DD0008C80002200923168009122685068009057
:100DE000009920684269500642D5E16B0868406866
:100DF00080B20028E1D0A28D9042DEDAE0858869D9
:100E000020282DD0216801F10C0050E8001F226835
:100E100002F10C0521F4807145E800100028F1D1A1
:100E200000F0A0F8490800F11405490045E8001059
:100E30000028F5D100F096F800F1140521F04001EA
:100E400045E800100028F5D12020587000212163CA
:100E500000F08EF800F0C6F8FAD1E06B00F0D2F99D
:100E600002206063A18DE08D091A89B2204638E026
:100E7000A08DE18D411AE08D00281CBF88B20028AA
:100E80006FD02246106800F10C0454E8004F00F1C6
:100E90000C0624F4907446E800400028F2D1106853
:100EA00000F1140454E8004F640800F114066400D3
:100EB00046E800400028F2D1202058700023136338
:100EC000106800F10C0353E8003F00F10C0523F01B
:100ED000100345E800300028F2D10220506389B2A7
:100EE0001046BDE8F44000F00EBA28062AD53906AF
:100EF00028D51878212834D1A068B0F5805F04BFC8
:100F00002069002808D1206A0188C1F308017160B6
:100F1000206A811C216205E0206A411C216222684E
:100F200000785060E08C401EE08480B2C8B9206830
:100F3000C16821F08001C1602068C16841F04001B2
:100F4000C160F1BD68060CD579060AD5F16821F0BB
:100F50004001F160204620211970BDE8F24000F008
:100F600047BAF1BD206800F1140151E8001F704735
:100F7000206800F10C0151E8001F00F10C037047DC
:100F8000026802F10C0151E8002F036803F10C0420
:100F90007047016801F1140252E8002F520801F174
:100FA0001404520044E800210029F2D17047816204
:100FB0008285C28500214164222280F84220016995
:100FC00021B10168CA6842F48072CA6001684A6946
:100FD00042F001024A610068C16841F02001C1602D
:100FE0000020704721F0100143E8001000287047EE
:100FF000016801F10C0252E8002F01F10C04704766
:1010000010B5FFF7F5FF22F4907200F015F8F8D153
:10101000FFF7BFFF016B012906D1FFF7B1FF22F0F7
:10102000100200F009F8F8D1202180F842100022C7
:10103000026310BD22F4807244E800210029704749
:10104000406A0021C185C18400F05CB91CB590F8EC
:101050004210222952D18168826AB1F5805F0AD19B
:10106000016969B903685968C1F308011180826A8E
:10107000911C81620FE0002904BF0169002902D19F
:101080000368596803E00168496801F07F01117045
:10109000816A4A1C8262C18D491EC18589B259BBD1
:1010A0000168CA6822F02002CA600168CA6822F496
:1010B0008072CA6001684A69520852004A61202160
:1010C00080F8421000224263016B012912D10263B1
:1010D00000F016F802681168CB0607D500240094CA
:1010E00012680092036859680091009A818D00F09F
:1010F0000AF901E000F06BF9002016BD022016BDD0
:10110000016801F10C0252E8002F01F10C0422F0F9
:10111000100244E800210029F2D1704710B50446BE
:1011200022681169E06821F4405101431161D368DC
:101130001849A0680B402169034360690B430343CE
:10114000D3605169A06921F4407101435161124992
:101150008A4202D100F093FB01E000F088FB626854
:10116000192148439200B0FBF2F16423B1FBF3F282
:1011700003FB121109013231B1FBF3F000F0F00171
:1011800001EB0211226800F00F004018906010BDC2
:1011900000000000F3E9FFFF0038014062F30F2276
:1011A00062F31F42401810F0030308D0C91A1FD37E
:1011B000DB0748BF00F8012D28BF20F8022D1300DF
:1011C00030B414461546103928BF20E93C00FAD83F
:1011D000490728BF20E90C0048BF40F8042D8900CA
:1011E00028BF20F8022D48BF00F8012D30BC704701
:1011F000C91818BF00F8012DCB0728BF00F8012D32
:101200007047000010B590F82110022900F1380253
:1012100006D004231360002180F82010012010BDA7
:1012200001680B6823F00E030B60012301680C6852
:10123000640864000C60916852688B40536001211F
:1012400080F82110002280F82020002010BD38B541
:1012500090F821200024022A00F1340103D0042058
:10126000486001243EE00268136823F00E03136017
:101270000268DFF8743015686D086D00156002684B
:101280009A4208BF012222D0DFF860309A4208BF9C
:1012900010221CD0DFF858309A4208BF4FF48072F9
:1012A00015D0DFF850309A4208BF4FF480520ED06C
:1012B000DFF844309A4208BF4FF4803207D0DFF89D
:1012C0003C309A420CBF4FF480124FF08072DFF82E
:1012D00030301A60012280F8212080F8204009680F
:1012E00001B18847204632BD080002401C00024080
:1012F0003000024044000240580002406C000240AE
:1013000004000240704770473D483E4AAA210170E0
:10131000D1894170090A81703B490A88C270120A5A
:101320000271B1F902204271121282710969C17110
:1013300009120172552141727047000010B5304CFE
:10134000207C03281AD8DFE800F002190914A27BD8
:10135000012A14D10020A073012010E0FFF7D4FF70
:10136000022020740A2221462848FFF77EFC032031
:1013700005E0E17B012902D10020E0730220207406
:1013800010BD000010B51E490A7B4B7C541C032B7A
:101390001BD8DFE803F002070B15AA280DD10122A4
:1013A00001230AE048732246022306E022464C7BD2
:1013B000D0B2A41CA042A8BF03234B740A7310BD73
:1013C0005528224604BF012088730023F5E70068F2
:1013D0000F49884200D0704710B50E4C2078FFF7B7
:1013E000D1FF2146BDE8104001220848FFF756BC56
:1013F00000680749884202D101480122C273704740
:10140000640000205001002000000020780000202F
:1014100000380140680100202DE9F843040016D08F
:101420002078DFF87064C10713D5706800F00C00F5
:10143000042807D0706800F00C00082841D17068BB
:10144000C1033ED53068810303D56068002800F0F1
:1014500064812078DFF84C74810719D5706810F02A
:101460000C0F07D0706800F00C00082861D170687C
:10147000C1035ED43068810703D52069012840F09C
:101480004C813168606921F0F80141EAC0013160A6
:101490002178080740F18180A069DFF80C1400284A
:1014A00000F0A68001220A6000F016FA0546706A74
:1014B000810763D400F010FA401B0228F7D90320FB
:1014C0002EE16068B0F5803F04D1306840F4803090
:1014D000306014E008B930680AE0B0F5A02F306839
:1014E00006D140F480203060316841F4803105E05D
:1014F00020F480303060316821F4802131606068F0
:1015000058B100F0E9F9054630688103A1D400F034
:10151000E3F9401B6528F7D3D1E700F0DDF9054674
:101520003068810395D500F0D7F9401B6528F7D3C3
:10153000C5E72069A8B10121396000F0CDF9054661
:101540003068810705D400F0C7F9401B0228F7D99D
:10155000B5E73068616920F0F80040EAC10030600A
:1015600096E7386000F0B8F90546316888078FD5EE
:1015700000F0B2F9401B0228F7D9A0E7DFF8180302
:101580000168C9084FF47A72B1FBF2F2009200BF11
:101590000098411E00280091F9D1207841076ED5AE
:1015A000F0690025C10009D4F06940F08050F06175
:1015B0000125F06900F0805000900098DFF8EC827F
:1015C000D8F80000C10520D4D8F8000040F480709D
:1015D000C8F8000000F080F98146D8F80000C10585
:1015E00013D400F079F9A0EB09006528F5D366E77C
:1015F000086000F071F90546706A8107CDD500F0EA
:101600006BF9401B0228F7D959E7E068012808D098
:1016100008B9306A09E00528306A06D140F00400B4
:101620003062306A40F0010005E04008400030625E
:10163000306A20F00400306241F28938E06860B11D
:1016400000F04AF98146306A810713D400F044F96A
:10165000A0EB09004045F6D331E700F03DF98146A3
:10166000306A810706D500F037F9A0EB0900404544
:10167000F6D324E71DB1F06920F08050F061E069F5
:1016800000284CD0716801F00C01082938D00228DC
:101690002AD100F047F805463068810105D500F0F1
:1016A0001BF9401B0228F7D909E7206AB0F5803FF3
:1016B00005D17168A06821F400310143716072683E
:1016C000206A616A22F4741202430A4372600120A4
:1016D00000F029F804463068810120D400F0FCF8BD
:1016E000001B0228F7D9EAE600F01CF8044630682F
:1016F000810114D500F0F0F8001B0228F7D9DEE6CE
:1017000001280AD07068226A00F48031914202BF39
:1017100000F47010616A884201D0012000E00020CE
:10172000BDE8F2830020386600F0D6B82DE9F0411C
:10173000040088464ED05E4E00F077F802D200F0EA
:101740006FF847D12068534D810712D5400703D564
:10175000696841F4E06169602078010703D5686831
:1017600040F4605068606968A06821F0F0010143AE
:1017700069602178C80725D56068012802D12968E9
:101780008A0303E00228296802D18A0102D421E0F9
:101790008A071FD56968890840EA8100686000F0FF
:1017A0009BF807466868616800F00C00B0EB810F99
:1017B00008D000F091F8C01B41F289318842F1D382
:1017C00003202BE0306800F00700804504D200F0D1
:1017D00027F801D0012021E02078410705D56A686B
:1017E000E06822F4E06202436A602178080706D5C7
:1017F0006968206921F4605141EAC001696000F024
:1018000019F86A682B49244BC2F30312895CC8405B
:1018100018602348006800F065F80020BDE8F081FA
:101820003168C90848EAC1013160306800F007003A
:1018300040457047204919480A6802F00C03082BFC
:1018400000D0704710B500BF1EA4C2F38343D2037B
:10185000E35C08D5096858431EA3C1F340415A5CB4
:10186000B0FBF2F010BD18461449484310BD0A48B9
:10187000114A006813681249C3F3022206E00648C1
:101880000D4A006813680E49C3F3C222895CC84040
:1018900070470000001002402000002000127A0073
:1018A0001C000020000042428004424200700040C0
:1018B00000200240B82000080410024000093D004A
:1018C000D820000802030405060708090A0B0C0DBE
:1018D0000E0F10100102000001484068704700BF61
:1018E0001400002038B50D4D0D4B2A7804464FF4F6
:1018F0007A711868B1FBF2F2B0FBF2F0FFF770F802
:1019000050B9102C08D2002221464FF0FF30FFF7CB
:101910003FF8AC60002032BD012032BD1400002031
:101920002000002078B58DB000F04CF900F011F9DE
:10193000102200F040F97A487A4D01687A4C41F063
:1019400010010160026802F010020492049902681A
:1019500042F020020260036803F02003049304991C
:10196000026842F004020260036803F00403049377
:101970000499026842F0080202600022006800F048
:10198000080004904FF4005104982846FFF713F91B
:10199000002201212046FFF70EF901224FF40061D9
:1019A0002046FFF708F94FF4005100F0C9F8284627
:1019B000FFF740F8112201920121009102910222C9
:1019C000039269462046FFF735F84FF4006100F0B6
:1019D000B7F82046FFF72EF8544C554820604FF4D6
:1019E000E1310C20002260616160A260E26022614E
:1019F000A261E2612046FFF7FBF808B100F0DFF8D2
:101A00001022002102A8FFF70BF800F0D3F8494894
:101A1000A064472100202065A065E065E164802086
:101A2000206640F2E735656504F14800FEF75EFB8D
:101A300008B100F0C4F84FF48056029602A904F1F0
:101A40004800FEF7FEFC08B100F0B9F80021009153
:101A5000019104F14800694600F0C6F808B100F0B1
:101A6000AEF81022002109A8FEF7DAFF00F0A2F874
:101A70001C22002102A8FEF7D3FF4FF0804044F85B
:101A8000900F4721616000228021A2602261A16144
:101A9000E5602046FEF72AFB08B100F090F80996B1
:101AA00009A92046FEF7CDFC08B100F088F82046D1
:101AB000FEF76CFB08B100F082F800210091019163
:101AC0002046694600F090F808B100F078F86021EF
:101AD00002910022022103920491069202A904229B
:101AE0002046FEF74CFC08B100F069F82046FEF7EE
:101AF0007AFE1148016841F08071016000220F48B0
:101B00004260016841F001010160FEF7E5FE042139
:101B10002046FEF748FB00F0A1F8FEF7E8FEFAE7E2
:101B20001810024000100140000801407800002019
:101B300000380140002C0140FCED00E0001000E006
:101B40000091012201920021029102220392694632
:101B5000704700B58FB02822002105A8FEF760FF6E
:101B6000142200F028F84FF48031002206910792E9
:101B70000D9101200590099002224FF4E0110C9282
:101B80000E9105A8FFF748FC08B172B6FEE70221E6
:101B900001910F204FF48061009000220391029286
:101BA000049202216846FFF7C1FD08B172B6FEE754
:101BB0000FB000BD082200216846FEF731BF72B6A3
:101BC000FEE7000080B50748016841F010010160A0
:101BD0000320FEF7D0FE0F20FFF784FEFEF7C0FDC6
:101BE000002002BD0020024070B500F13C031A78CD
:101BF000012A01D1022070BD01221A7002245C70FA
:101C000005686E68AC680A6826F0700616436E6058
:101C100002680A4882421EBFB2F1804F06488242E3
:101C200004D1486824F08004044394600121597071
:101C30000020187070BD000000040040002C01401E
:101C400030B5614A614C136825686149B5FBF1F113
:101C500048431468E41A8442FBD330BD70B5FFF7E3
:101C60003BFE5C4C61682278411A0125521E042A11
:101C70006061594E38D8DFE802F0030A1B5C62004D
:101C8000002200F094F86069606002214FE00029B2
:101C90002AD000F08BF84FF4F070FFF7D1FFCC2082
:101CA0002072002160786172401C607003213EE068
:101CB000627A082A19DA002200F079F80220FFF788
:101CC000BFFF94F90900217A8540294201D000F034
:101CD0006DF83C20FFF7B4FF00F068F80220FFF732
:101CE000AFFF607A401C607270BD6178012906D038
:101CF00002290AD004290DD0052912D070BD442034
:101D0000207200216172022009E06060042103203A
:101D100060700CE0BE2020720021617205206070AE
:101D200070BD002161812173062060700521217042
:101D300070BD40F2EE20814237D3257070BD207B0C
:101D400010281FDA002200F032F80220FFF778FF97
:101D500000F02CF80520FFF773FF01213046FEF755
:101D600024FF40B1207B04EBD00100F007008A7A09
:101D7000854015438D723220FFF762FF207B401CA7
:101D8000207370BDE17AA07A40EA012000F028F8C3
:101D90004FF0765100F036F8104900F033F800F0BB
:101DA0009DF80021E0812574218070BD0122012170
:101DB0003046FEF700BF0749087818B90022012015
:101DC0000A74087070470000041000E02000002032
:101DD00040420F0050010020000801400000204157
:101DE000C2175040801AB0FA80F10AD08840D1F171
:101DF0009D01D20742EAC151020672F1004241EB55
:101E000010207047FF2212EAD05C1DBF12EAD153A6
:101E1000944593422BE09C44D30780EA01021A4088
:101E200043EA002043EA0121A1FB0030C04238BF51
:101E300040007CF17F010BDBFE294ADA5B0842EAB5
:101E4000C15153EA006373F1004C51EB102070470D
:101E5000D1F1080CDCF120012FDB5B0810FA01F155
:101E60000B4320FA0CF073F1004150417047944548
:101E70001CBF02EAD153934280EA010202F0004201
:101E80001DD0400019D0490017D05BB9634514D06C
:101E90000902B1FA81F39940BCEB030CC00140F098
:101EA0000040C1E70002B0FA80FC10FA0CF0B3EB7E
:101EB0000C0CC90141F00041B6E71000704740002A
:101EC0000AD0490008D010F1807F94BF11F1807FC3
:101ED00002E042F0FF407047D0437047C0F3C75163
:101EE0007E390EDDC217D1F1200106DD000240F07F
:101EF0000040C840104450407047D04380F000403C
:101F0000704700207047000000BF30B51249134AE7
:101F10008C880D89B1F90000B2F90E20CB686543B9
:101F2000821AC8884A8012B2D3185D4395FBF0F03C
:101F300002FB040440F2E7308442CB60A8BF0446B1
:101F400003DA002CD4BF0024D31805480C61CB6001
:101F500001688C6330BD00000000002050010020AB
:101F60000801002030B5016884684218416802EB1E
:101F70005103C90703D54C4401E0491C05D19A42DD
:101F80000AD012F9011B12F8015B002904F8015B69
:101F9000F3D4491EF7D5F2E70C3030BD10B50A4C2A
:101FA0000A48237843B1012B0BD101224FF4005191
:101FB000FEF701FE002005E000224FF40051FEF77D
:101FC000FAFD0120207010BD7600002000100140B5
:101FD000FEE7FEE7FEE7FEE7FEE770477047704763
:101FE00000F00AB80248FEF72DB90248FEF777BEA6
:101FF000C00000207800002002494A680878821852
:102000004A6070471400002010B507497944183120
:10201000064C7C44163404E00A68081D11448847C5
:102020000146A142F8D110BD0800000024000000C4
:10203000F7E6FFFFF4000000780000200000000039
:1020400025FFFFFF2C010000A4000000000000207D
:1020500000F00DF8002801D0FFF7D6FFAFF30080A5
:102060000020AFF30080FFF75DFC00F002F80120D4
:10207000704700F001B800000746384600F002F84B
:10208000FBE7000080B5AFF30080024A1100182082
:10209000ABBEFBE7260002000548014603B46846D4
:1020A00080F30988AFF30080AFF30080FFF7D0FF23
:1020B000A5EDF5FE704700000000000000000000E4
:1020C0000102030406070809014880470148004748
:1020D000B520000899200008000000000102030458
:1020E000FFF7FEBFFFF7FEBFFFF7FEBFFFF7FEBF24
:1020F000FFF7FEBFFFF7FEBFFFF7FEBFFFF7FEBF14
:10210000FFF7FEBFFFF7FEBFFFF7FEBFFFF7FEBF03
:10211000FFF7FEBFFFF7FEBFFFF7FEBFFFF7FEBFF3
:10212000FFF7FEBFFFF7FEBFFFF7FEBFFFF7FEBFE3
:10213000FFF7FEBFFFF7FEBFFFF7FEBFFFF7FEBFD3
:10214000FFF7FEBFFFF7FEBFFFF7FEBFFFF7FEBFC3
:10215000FFF7FEBFFFF7FEBFFFF7FEBFFFF7FEBFB3
:10216000FFF7FEBFFFF7FEBFFFF7FEBFFFF7FEBFA3
:1021700008F40100000A000A0001F5000001F9005E
:102180000010FC0008127A00F4010000F401FA00CB
:10219000099D1F0008E8030000E803FA00093D1349
:1021A0000008E8030000E803FA0009B71D0008E88A
:1021B000030000E803FA0003091F0008F000020210
:0221C00000011C
:040000050800209936
:00000001FF
